:100000000C9434000C9451000C9451000C94510049
:100010000C9451000C9451000C9451000C9451001C
:100020000C9451000C9451000C9451000C949800C5
:100030000C9451000C9451000C9451000C945100FC
:100040000C9451000C9451000C9451000C945100EC
:100050000C9451000C9451000C9451000C945100DC
:100060000C9451000C94510011241FBECFEFD8E026
:10007000DEBFCDBF12E0A0E0B1E0E2E5F5E102C0F5
:1000800005900D92A032B107D9F712E0A0E2B2E0DC
:1000900001C01D92AA32B107E1F70E94B0000C9492
:1000A000A70A0C940000ECE7F0E080818064808374
:1000B000EAE7F0E08081856080838081806E8083C4
:1000C00008958FEF9FEF9093870080938600EFE66F
:1000D000F0E0808182608083E0E8F0E080818268E7
:1000E0008083E1E8F0E0808188618083219A08952F
:1000F0009C01809111018823D1F01092110180910F
:100100002002909121020196909321028093200277
:1001100030938900209388008FEF9FEF90938500A4
:100120008093840080918100836080938100089592
:100130001F920F920FB60F9211248F93EF93FF939C
:10014000E1E8F0E080818C7F808381E08093110181
:10015000FF91EF918F910F900FBE0F901F90189508
:10016000AF92BF92CF92DF92EF92FF920F931F93C5
:10017000DF93CF93CDB7DEB760970FB6F894DEBFAD
:100180000FBECDBF7894259A0E9453000E94610053
:100190000E94FC010E94F3018E010F5F1F4F90E04F
:1001A000E92E91E0F92E80E9A82E81E0B82E609129
:1001B00078007091790080E090E00E94200420E0B7
:1001C00030EC4FE754E40E94200320E03FEF4FE77C
:1001D00057E40E9426020E94B8070E94CC036B01DC
:1001E000489903C0CB010E9478000E94DB0100D037
:1001F00000D000D0EDB7FEB73196ADB7BEB71296BE
:100200001C930E931197F382E282809120029091C9
:100210002102958384830E9494078DB79EB706962A
:100220000FB6F8949EBF0FBE8DBF80E060E043E044
:1002300051E00E94BD0180E061E0A8010E94BD0183
:1002400089B100D000D000D0EDB7FEB73196ADB780
:10025000BEB712961C930E931197F382E28290E040
:1002600081709070958384830E9494078DB79EB7A8
:1002700006960FB6F8949EBF0FBE8DBF84E061E076
:10028000A8010E94BD0100D000D000D0EDB7FEB79C
:100290003196ADB7BEB712961C930E931197F382A9
:1002A000E282D582C4820E9494078DB79EB70696DB
:1002B0000FB6F8949EBF0FBE8DBF86E061E0A80127
:1002C0000E94BD010E94AA0180E197E2F5013197E9
:1002D000F1F70197D9F76BCF5F9A5F9808955E9811
:1002E0005F9895B1927E95B935B1982F9695969570
:1002F00096959C71282F22952170922B932B95B95E
:100300005F9A5F9895B1927E95B925B1982F990F14
:100310009C718170982B922B95B95F9A5F9880E8B9
:100320009EE30197F1F708955D9A0E946F015D9831
:1003300008955D980E946F010895CF93DF93EC01BB
:1003400003C021960E94940188818823D1F7DF9110
:10035000CF91089582E00E949901809122029091AC
:1003600023020E949D0180EC0E9499018091240249
:10037000909125020E949D010895282FDA01803175
:10038000C8F46230B8F4662329F480912202909177
:10039000230204C08091240290912502FC01E20F07
:1003A000F11D02C0919311969C91992319F08081BF
:1003B0008823C1F7089581E00E949901809122026B
:1003C0009091230260E270E040E150E00E948D07CE
:1003D000809124029091250260E270E040E150E0BB
:1003E0000E948D0708958CE00E94990188E20E9486
:1003F00099010E94DB01089584B18D6184B98AB1AD
:10040000806E8AB985B1827E85B92A9A5F9A5F9893
:1004100084EF91E020E931E0F9013197F1F701979C
:10042000D9F781E190E061E070E00E946C06809372
:1004300022029093230281E190E061E070E00E944B
:100440006C0680932402909325020895A0E2B0E008
:10045000ECE2F2E00C94350669837A838B839C830B
:100460002D833E834F835887CE010196BE01675F7F
:100470007F4F0E94BD05CE010596BE016F5E7F4F86
:100480000E94BD059985923088F089898230C8F034
:10049000943019F4823051F404C0843029F492303D
:1004A00081F482E191E0C6C0923049F420E09A855F
:1004B0008A89981321E02A87CE010996BBC0823031
:1004C00049F420E09A858A89981321E02A8BCE018D
:1004D0004196B0C02D843E844F8458886D887E88B4
:1004E0008F88988CEE24FF248701AA24BB24650101
:1004F00040E050E060E070E0E0E0F0E0C1018170D9
:100500009070892BE9F0E60CF71C081D191D9A0163
:10051000AB012A0D3B1D4C1D5D1D80E090E0A0E06D
:10052000B0E0E614F7040805190520F481E090E036
:10053000A0E0B0E0BA01A901480F591F6A1F7B1F54
:10054000AA0CBB1CCC1CDD1C97FE08C081E090E00F
:10055000A0E0B0E0A82AB92ACA2ADB2A3196E03204
:10056000F10549F0660C771C881C991C5694479439
:1005700037942794C3CFFA85EA892B893C898B85E8
:100580009C85280F391F2E5F3F4F17C0CA0181700D
:100590009070892B61F016950795F794E79480E0A9
:1005A00090E0A0E0B0E8E82AF92A0A2B1B2B769508
:1005B0006795579547952F5F3F4F77FDE7CF0CC065
:1005C000440F551F661F771F17FD4160EE0CFF1C7F
:1005D000001F111F21503040403090E0590790E03B
:1005E000690790E4790760F32B8F3C8FDB01CA0128
:1005F0008F779070A070B07080349105A105B1051F
:1006000061F447FD0AC0E114F1040105110529F068
:10061000405C5F4F6F4F7F4F40781A8EFE1711F08E
:1006200081E08A8F4D8F5E8F6F8F78A383E0898FF3
:10063000CE0149960E94E804A096E2E10C9451068E
:10064000A8E1B0E0E6E2F3E00C943D0669837A832A
:100650008B839C832D833E834F835887B9E0EB2E99
:10066000F12CEC0EFD1ECE010196B7010E94BD05D6
:100670008E010F5E1F4FCE010596B8010E94BD0589
:100680002985223008F47EC03989323010F4B8014F
:100690007CC08A859A8989278A87243011F0223084
:1006A00031F4231709F06EC062E171E06EC034309E
:1006B00039F41D861E861F86188A1C861B8604C078
:1006C000323021F484E08987B7015FC02B853C85F7
:1006D0008B899C89281B390B3C872B87ED84FE84F2
:1006E0000F851889AD88BE88CF88D88CEA14FB04A2
:1006F0000C051D0540F4EE0CFF1C001F111F2150BE
:1007000030403C872B8720E030E040E050E080E044
:1007100090E0A0E0B0E460E070E0EA14FB040C05B7
:100720001D0540F0282B392B4A2B5B2BEA18FB08C0
:100730000C091D09B695A79597958795EE0CFF1C9A
:10074000001F111F6F5F7F4F6F31710531F7DA01A5
:10075000C9018F779070A070B07080349105A105A9
:10076000B10561F427FD0AC0E114F104010511058A
:1007700029F0205C3F4F4F4F5F4F20782D873E87F9
:100780004F87588BBE01675F7F4FCB010E94E80403
:100790006896EAE00C945906ACE0B0E0E2EDF3E0D4
:1007A0000C94450669837A838B839C83CE010196E2
:1007B000BE016B5F7F4F0E94BD058D81823061F16C
:1007C000823050F1843021F48E81882351F12EC083
:1007D0002F81388537FD20C06E812F3131051CF007
:1007E0006623F9F023C08EE190E0821B930B2985EC
:1007F0003A854B855C8504C0569547953795279576
:100800008A95D2F76623B1F05095409530952195A1
:100810003F4F4F4F5F4F0EC020E030E040E050E0D0
:1008200009C02FEF3FEF4FEF5FE704C020E030E05B
:1008300040E050E8B901CA012C96E2E00C94610650
:10084000A8E0B0E0E6E2F4E00C943D067B018C0108
:10085000611571058105910519F482E0898360C0F5
:1008600083E089838EE1C82ED12CDC82CB82ED829D
:10087000FE820F831887C801B7010E949904FC010A
:100880003197F7FF3BC0222733272E1B3F0B570121
:100890006801022E04C0D694C794B794A7940A9412
:1008A000D2F740E050E060E070E081E090E0A0E04E
:1008B000B0E004C0880F991FAA1FBB1F2A95D2F76A
:1008C0000197A109B1098E219F21A023B12300978F
:1008D000A105B10521F041E050E060E070E04A2957
:1008E0005B296C297D294D835E836F8378878EE138
:1008F00090E08E1B9F0B9C838B8312C0309781F0FE
:100900000E2E04C0EE0CFF1C001F111F0A94D2F71C
:10091000ED82FE820F831887CE1ADF0ADC82CB823B
:100920001A82CE0101960E94E8042896EAE00C940F
:100930005906EF92FF920F931F937B018C0180E089
:10094000E81680E0F80681E0080780E0180788F4E0
:100950008FEFE816F1040105110531F028F088E069
:1009600090E0A0E0B0E017C080E090E0A0E0B0E050
:1009700012C080E0E81680E0F80680E0080781E019
:10098000180728F088E190E0A0E0B0E004C080E122
:1009900090E0A0E0B0E020E230E040E050E0281B32
:1009A000390B4A0B5B0B04C016950795F794E79437
:1009B0008A95D2F7F701E65EFE4F8081281B310948
:1009C00041095109C9011F910F91FF90EF900895BE
:1009D000DF92EF92FF920F931F93FC01E480F5806A
:1009E00006811781D1808081823048F480E090E0D8
:1009F000A0E1B0E0E82AF92A0A2B1B2BA5C084301D
:100A000009F49FC0823021F4EE24FF24870105C041
:100A1000E114F1040105110519F4E0E0F0E096C0DD
:100A2000628173819FEF623879070CF05BC022E826
:100A30003FEF261B370B2A3131052CF020E030E048
:100A400040E050E02AC0B801A701022E04C076950C
:100A50006795579547950A94D2F781E090E0A0E01A
:100A6000B0E004C0880F991FAA1FBB1F2A95D2F7B8
:100A70000197A109B1098E219F21A023B1230097DD
:100A8000A105B10521F081E090E0A0E0B0E09A017D
:100A9000AB01282B392B4A2B5B2BDA01C9018F774D
:100AA0009070A070B07080349105A105B10539F443
:100AB00027FF09C0205C3F4F4F4F5F4F04C0215CB0
:100AC0003F4F4F4F5F4FE0E0F0E02030A0E03A07AB
:100AD000A0E04A07A0E45A0710F0E1E0F0E0790155
:100AE0008A0127C06038710564F5FB01E158FF4FAA
:100AF000D801C7018F779070A070B07080349105D5
:100B0000A105B10539F4E7FE0DC080E490E0A0E056
:100B1000B0E004C08FE390E0A0E0B0E0E80EF91E82
:100B20000A1F1B1F17FF05C016950795F794E7943A
:100B3000319687E016950795F794E7948A95D1F753
:100B400005C0EE24FF248701EFEFF0E06E2F6795DC
:100B500066276795902F9F77D794DD24D7948E2FA3
:100B60008695492F462B582F5D29B701CA011F9141
:100B70000F91FF90EF90DF900895FC01DB01408121
:100B800051812281622F6F7770E0221F2227221F5E
:100B90009381892F880F822B282F30E0991F992766
:100BA000991F11969C93119721153105A9F54115AF
:100BB00051056105710511F482E037C082E89FEFAD
:100BC00013969C938E9312979A01AB0167E0220FC4
:100BD000331F441F551F6A95D1F783E08C930DC0D6
:100BE000220F331F441F551F12968D919C9113970E
:100BF000019713969C938E931297203080E03807CC
:100C000080E0480780E4580758F314962D933D93ED
:100C10004D935C93179708952F3F310579F4411553
:100C200051056105710519F484E08C93089564FF02
:100C300003C081E08C9312C01C9210C02F5730402B
:100C400013963C932E93129783E08C9387E0440F86
:100C5000551F661F771F8A95D1F7706414964D93C0
:100C60005D936D937C93179708952F923F924F92C7
:100C70005F926F927F928F929F92AF92BF92CF922C
:100C8000DF92EF92FF920F931F93CF93DF93CDB735
:100C9000DEB7CA1BDB0B0FB6F894DEBF0FBECDBFAD
:100CA00009942A88398848885F846E847D848C847E
:100CB0009B84AA84B984C884DF80EE80FD800C8187
:100CC0001B81AA81B981CE0FD11D0FB6F894DEBF6A
:100CD0000FBECDBFED0108950F931F93CF93DF9308
:100CE000689F8001699F100D789F100D1124C80125
:100CF0000E948806EC01009729F060E070E0A801EE
:100D00000E948D07CE01DF91CF911F910F91089521
:100D1000CF93DF93BC018230910510F462E070E064
:100D2000A0912802B0912902ED01E0E0F0E040E05E
:100D300050E021C0888199818617970769F48A81DC
:100D40009B81309719F09383828304C0909329028A
:100D500080932802FE0134C06817790738F44115E2
:100D6000510519F08417950708F4AC01FE018A813A
:100D70009B819C01E9012097E9F641155105A9F1F4
:100D8000CA01861B970B049708F4BA01E0E0F0E073
:100D90002AC08D919C91119784179507F9F46417D7
:100DA000750781F412968D919C911397309719F0E5
:100DB0009383828304C09093290280932802FD01CB
:100DC00032964FC0CA01861B970BFD01E80FF91F31
:100DD0006193719302978D939C9343C0FD0182812F
:100DE00093819C01D9011097A1F6809126029091E0
:100DF0002702892B41F480911C0290911D0290934F
:100E000027028093260240911E0250911F02411535
:100E1000510541F44DB75EB780911A0290911B02C3
:100E2000481B590B209126023091270224173507C1
:100E3000B0F4CA01821B930B8617970780F0AB01B1
:100E40004E5F5F4F8417950750F0420F531F50932A
:100E5000270240932602F9016193719302C0E0E0FA
:100E6000F0E0CF01DF91CF910895CF93DF9300970A
:100E700009F450C0EC0122971B821A82A09128022B
:100E8000B0912902109709F140E050E0AC17BD077E
:100E900008F1BB83AA83FE0121913191E20FF31F78
:100EA000AE17BF0779F48D919C911197280F391FC8
:100EB0002E5F3F4F3983288312968D919C91139713
:100EC0009B838A834115510571F4D0932902C09305
:100ED000280220C012968D919C911397AD01009726
:100EE00011F0DC01D3CFFA01D383C2832191319178
:100EF000E20FF31FCE17DF0769F488819981280F6D
:100F0000391F2E5F3F4FFA01318320838A819B81F5
:100F100093838283DF91CF910895DC0101C06D93AB
:100F200041505040E0F70895AEE0B0E0EAE9F7E064
:100F30000C9443060D891E8986E08C831A830983ED
:100F40008FEF9FE79E838D839E01275E3F4FCE01EB
:100F500001966F89788DA9010E94D8072F81388565
:100F6000020F131FF80110822E96E4E00C945F0626
:100F7000CDD2E0F09E37D8F09639B8F49E3848F4D8
:100F8000672F782F8827985FF9CF86957795679593
:100F900093959539D0F3B62FB1706B0F711D811DEC
:100FA00020F487957795679593957FC299C2C9C2BA
:100FB000ABE0B0E0EEEDF7E00C9435063C012B0120
:100FC0005A01FC0117821682838181FD03C06FEFF5
:100FD0007FEFC6C19AE0892E1E010894211C311CA6
:100FE000F3012381F20123FD859123FF81912F01DC
:100FF000882309F4B2C1853239F423FD859123FF9A
:1010000081912F01853229F490E0B3010E94CB0930
:10101000E7CF982FFF24EE249924FFE1FF15D0F0AD
:101020009B3269F09C3228F4903259F0933291F45B
:101030000EC09D3249F0903369F441E024C052E083
:10104000F52A84E0F82A28C098E0F92A25C0E0E1D2
:10105000FE2A22C0F7FC29C0892F80538A3070F401
:10106000F6FE05C0989C902C1124980E15C0E89CA3
:10107000E02C1124E80EF0E2FF2A0EC09E3229F483
:10108000F6FC6BC140E4F42A07C09C3619F450E822
:10109000F52A02C0983649F4F20123FD959123FF09
:1010A00091912F01992309F0B8CF892F855483306E
:1010B00018F08052833038F444E050E0A40EB51E9E
:1010C0005FE359830FC0933631F0933779F093354E
:1010D00009F056C020C0F5018081898342E050E0CC
:1010E000A40EB51E610101E010E012C0F501C08040
:1010F000D180F6FC03C06FEF7FEF02C0692D70E076
:1011000042E050E0A40EB51EC6010E94C0098C0149
:101110005FE7F52214C0F501C080D180F6FC03C062
:101120006FEF7FEF02C0692D70E042E050E0A40E47
:10113000B51EC6010E94B5098C0150E8F52AF3FEE0
:1011400007C01AC080E290E0B3010E94CB09EA9484
:101150008E2D90E008171907A8F30EC0F601F7FCD2
:101160008591F7FE81916F0190E0B3010E94CB0958
:10117000E110EA94015010400115110579F7EAC019
:10118000943611F0993669F5F7FE08C0F501208113
:1011900031814281538184E090E00AC0F501808171
:1011A00091819C01442737FD4095542F82E090E0C7
:1011B000A80EB91E9FE6F92257FF09C05095409529
:1011C000309521953F4F4F4F5F4FE0E8FE2ACA010F
:1011D000B901A1012AE030E00E94F709D82ED21807
:1011E00040C0953729F41F2D1F7E2AE030E01DC036
:1011F0001F2D197F9F3661F0903720F4983509F044
:10120000ACC00FC0903739F0983709F0A6C004C0C1
:1012100028E030E00AC0106114FD146020E130E0E5
:1012200004C014FD166020E132E017FF08C0F5018C
:10123000608171818281938144E050E008C0F501B2
:1012400080819181BC0180E090E042E050E0A40EFA
:10125000B51EA1010E94F709D82ED2188FE7F82EEB
:10126000F122F6FE0BC05EEFF522D91438F4F4FE3D
:1012700007C0F2FC05C08FEEF82202C01D2D01C090
:10128000192DF4FE0DC0FE01ED0DF11D808180339E
:1012900019F499EEF92208C01F5FF2FE05C003C0E1
:1012A0008F2D867809F01F5F0F2DF3FC14C0F0FE20
:1012B0000FC01E1510F09D2C0BC09D2C9E0C911A7A
:1012C0001E2D06C080E290E0B3010E94CB091F5F93
:1012D0001E15C0F304C01E1510F4E11A01C0EE245F
:1012E00004FF0FC080E390E0B3010E94CB0902FF2E
:1012F0001DC001FD03C088E790E00EC088E590E0C6
:101300000BC0802F867891F001FF02C08BE201C0F4
:1013100080E2F7FC8DE290E0B3010E94CB0906C0A9
:1013200080E390E0B3010E94CB099A94D914C0F3F2
:10133000DA94F101ED0DF11D808190E0B3010E947E
:10134000CB09DD20A9F706C080E290E0B3010E943E
:10135000CB09EA94EE20C1F743CEF3016681778191
:10136000CB012B96E2E10C945106FC0105906150F3
:1013700070400110D8F7809590958E0F9F1F0895AB
:10138000FC016150704001900110D8F78095909554
:101390008E0F9F1F08950F931F93CF93DF938C01A0
:1013A000EB018B8181FF1BC082FF0DC02E813F812D
:1013B0008C819D812817390764F4E881F9810193B4
:1013C000F983E88306C0E885F985802F0995892B84
:1013D00031F48E819F8101969F838E8302C00FEF2F
:1013E0001FEFC801DF91CF911F910F910895FA016E
:1013F000AA27283051F1203181F1E8946F936E7F54
:101400006E5F7F4F8F4F9F4FAF4FB1E03ED0B4E044
:101410003CD0670F781F891F9A1FA11D680F791F85
:101420008A1F911DA11D6A0F711D811D911DA11D96
:1014300020D009F468943F912AE0269F11243019A6
:10144000305D3193DEF6CF010895462F4770405D41
:101450004193B3E00FD0C9F7F6CF462F4F70405DF0
:101460004A3318F0495D31FD4052419302D0A9F74B
:10147000EACFB4E0A6959795879577956795BA9545
:10148000C9F700976105710508959B01AC010A2E0B
:1014900006945795479537952795BA95C9F7620FE2
:1014A000731F841F951FA01D0895882371F477234F
:1014B00021F09850872B762F07C0662311F49927C7
:1014C0000DC09051862B70E060E02AF09A95660F6F
:1014D000771F881FDAF7880F9695879597F90895F3
:1014E0009F3F31F0915020F4879577956795B79598
:1014F000880F911D9695879597F9089557FD9058F7
:10150000440F551F59F05F3F71F04795880F97FBC7
:10151000991F61F09F3F79F0879508951216130681
:101520001406551FF2CF4695F1DF08C016161706B0
:101530001806991FF1CF86957105610508940895E5
:10154000E894BB2766277727CB0197F90895F8948D
:02155000FFCFCB
:101552002575006675636B2074686520646F67216A
:10156200000100000000000000000001020203036D
:101572000303040404040404040405050505050525
:101582000505050505050505050506060606060603
:1015920006060606060606060606060606060606E9
:1015A20006060606060606060606070707070707D3
:1015B20007070707070707070707070707070707B9
:1015C20007070707070707070707070707070707A9
:1015D2000707070707070707070707070707070799
:1015E2000707070707070707070708080808080883
:1015F2000808080808080808080808080808080869
:101602000808080808080808080808080808080858
:101612000808080808080808080808080808080848
:101622000808080808080808080808080808080838
:101632000808080808080808080808080808080828
:101642000808080808080808080808080808080818
:101652000808080808080808080808080808080808
:101662000808080808080808080820002A020000DC
:00000001FF
