:100000000C9434000C94CB000C9451000C945100CF
:100010000C9451000C9451000C9451000C9451001C
:100020000C9451000C9451000C9451000C9451000C
:100030000C9451000C9414010C94F7010C94510091
:100040000C9451000C9451000C940A020C94380248
:100050000C9451000C9451000C9451000C945100DC
:100060000C9451000C94510011241FBECFEFD8E026
:10007000DEBFCDBF11E0A0E0B1E0E6E5FFE002C0E9
:1000800005900D92A830B107D9F721E0A8E0B1E0C2
:1000900001C01D92A338B207E1F70E94B9030C9486
:1000A000A9070C94000080916B01813069F018F071
:1000B0008230E9F0089580915A01823009F58091EB
:1000C0006C0180930001089580915A018130C1F440
:1000D00089B1209111013091120141E0811101C0DB
:1000E00040E060910B01809100010C949D03809190
:1000F0005A01813029F48091000190E00C94E701CD
:10010000089552985A9A83E08093690081E08DBBEC
:1001100080936F0084E0809381000895CF92DF92F6
:10012000EF92FF92609184007091850080E090E0F2
:100130000E94D3046B017C0180910D0190910E010E
:10014000BC0180E090E00E94D3049B01AC01C70198
:10015000B6010E94610420E030E044EB53E40E94C9
:10016000C80520910A01211106C020E030E044EBCF
:1001700053E40E94F50321E433EA43E452E40E948D
:10018000F50320E030E044E354E4FF90EF90DF908B
:10019000CF900C941B051F920F920FB60F92112453
:1001A0002F933F938F939F9380918400909185002C
:1001B000109285001092840020910C012223F9F006
:1001C00020910B01222351F0209111013091120155
:1001D000281B390B3093100120930F0190931201CB
:1001E0008093110120910F0130911001820F931F14
:1001F00090930E0180930D0181E080930B0181E0CB
:1002000080930C0190910A0191111092090181E0F3
:10021000892780930A019F918F913F912F910F9091
:100220000FBE0F901F9018951F920F920FB60F924E
:10023000112410920C0110920B01109208011092DF
:100240001201109211011092100110920F011092E0
:100250000E0110920D010F900FBE0F901F90189578
:100260005F9A5F980895CF93C82F5D985F9885B186
:10027000807F85B985B19C2F92959F70892B85B918
:100280000E94300185B1807F85B985B1CF70C82BC0
:10029000C5B90E9430018FE79EE30197F1F700C0D6
:1002A0000000CF9108955C9A0E9433015C980895F4
:1002B0005C980C943301CF93DF93EC0189918823F0
:1002C00019F00E945301FACFDF91CF91089584B1C4
:1002D0008F6084B98AB1806B8AB985B1807F85B916
:1002E000299A0E9430012FEF80E792E02150804050
:1002F0009040E1F700C0000061E070E081E190E033
:100300000E94590690937C0180937B0161E070E02C
:1003100081E190E00E94590690937E0180937D01D7
:10032000089581E00E94580140E150E060E270E0F1
:1003300080917B0190917C010E94A20740E150E0F6
:1003400060E270E080917D0190917E010C94A207A3
:100350008CE00E94580188E20E9458010C9491019F
:1003600082E00E94580180917B0190917C010E9463
:100370005B0180EC0E94580180917D0190917E018B
:100380000C945B018031C0F46230B0F4611105C09F
:10039000E0917B01F0917C0104C0E0917D01F0913E
:1003A0007E01DA01E80FF11D8D91882329F09081FB
:1003B000992311F08193F8CF0895EEE6F0E0808163
:1003C0008260808384B5836884BD569A0895909135
:1003D0000101992341F01092010187BD8FEF86BD85
:1003E00085B5856085BD08958091010108951F92AE
:1003F0000F920FB60F9211248F9385B58A7F85BD1A
:100400005E9881E0809301018F910F900FBE0F9055
:100410001F9018951F920F920FB60F9211242F93D1
:100420008F939F93EF93FF938091C0009091C600AC
:100430008C71E0911501EF5FEF7120911401E217CB
:1004400039F0E0931501F0E0E85EFE4F908301C0C3
:1004500082E090911301892B80931301FF91EF911A
:100460009F918F912F910F900FBE0F901F90189515
:100470001F920F920FB60F9211248F939F93EF93B9
:10048000FF939091170180911601981769F0E09100
:100490001601EF5FEF71E0931601F0E0E85CFE4FAC
:1004A00080818093C60005C08091C1008F7D8093BC
:1004B000C100FF91EF919F918F910F900FBE0F9010
:1004C0001F901895109217011092160110921501A5
:1004D0001092140197FF03C022E02093C00090788F
:1004E0009093C5008093C40088E98093C10086E0A2
:1004F0008093C2000895909115018091140198177E
:10050000A9F0909114019F5F9F71E92FF0E0E85EE0
:10051000FE4F2081809113019093140110921301DA
:1005200090E0982F8827820F911D089580E091E038
:100530000895909117019F5F9F7120911601921766
:10054000E1F3E92FF0E0E85CFE4F80839093170120
:100550008091C10080628093C1000895CF93DF93A2
:10056000EC018991882319F00E949902FACFDF915A
:10057000CF910895CF93DF93FC018491EF012196F1
:10058000882321F00E949902FE01F7CFDF91CF91DD
:10059000089589E190E00C94620281E090915A0103
:1005A000903108F480E0089581E090915A01911112
:1005B00080E0089580E00895E0915A0191E09E0F57
:1005C00090935A01F0E0E559FE4F80830895109210
:1005D0005A01109258011092590108950F931F93D8
:1005E000CF93DF938C010E947B02EC019C012227B8
:1005F00021153105A9F580915A01803110F00E9432
:10060000E70290915901911102C010925801809116
:10061000580181111AC0CD3FD10531F4992349F118
:1006200081E08093580125C0CF3F31F40E94E7025A
:1006300081E0809359011DC0CE3F49F4992311F008
:10064000F80109951092590114C01092580199238C
:1006500081F08C2FDF91CF911F910F910C94DC02D0
:100660002115314031F0DF91CF911F910F910C9402
:10067000E702DF91CF911F910F910895AF92BF9242
:10068000CF92DF92EF92FF920F931F93CF93DF935E
:10069000CDB7DEB7ADB6BEB670E09B012F5F3F4F62
:1006A000220F331F4DB75EB7421B530B0FB6F894A2
:1006B0005EBF0FBE4DBFEDB7FEB731967F012FEF86
:1006C000EDB7FEB72183FC0101E010E04DEFD7014B
:1006D000A00FB11F9F01281B390B261737077CF489
:1006E000219133E0320F333018F44C930F5F1F4FDA
:1006F000D701A00FB11F2C930F5F1F4FE8CF8EEFD4
:100700008C936701F60181916F010E949902C601E5
:100710008E199F0908171907ACF70FB6F894BEBEDB
:100720000FBEADBEDF91CF911F910F91FF90EF9063
:10073000DF90CF90BF90AF900895CF93DF9300D01C
:1007400000D000D0CDB7DEB791E099838A836B8368
:100750004C833D832E8366E0CE0101960E943E03CA
:1007600026960FB6F894DEBF0FBECDBFDF91CF91B6
:100770000895259A0E94DD010E9481000E94C9020D
:100780007894C1E080910B01882349F180910D019B
:1007900090910E01893E23E0920718F4C09308015E
:1007A00005C08C3D954010F0109208018091090120
:1007B000811115C00E948E0020E030E041EE53E42C
:1007C0000E94C30587FD0BC080910801811105C0FF
:1007D0008091000190E00E94E701C093090183E548
:1007E00090E00E94EE02CECF5058BB27AA270E946D
:1007F0000C040C9489050E947B0538F00E94820548
:1008000020F039F49F3F19F426F40C9478050EF487
:10081000E095E7FB0C946405E92F0E949A0558F3D4
:10082000BA17620773078407950720F079F4A6F5D5
:100830000C94BC050EF4E0950B2EBA2FA02D0B01E5
:10084000B90190010C01CA01A0011124FF27591B15
:1008500099F0593F50F4503E68F11A16F040A22F1B
:10086000232F342F4427585FF3CF4695379527958C
:10087000A795F0405395C9F77EF41F16BA0B620B8B
:10088000730B840BBAF09150A1F0FF0FBB1F661FD2
:10089000771F881FC2F70EC0BA0F621F731F841F15
:1008A00048F4879577956795B795F7959E3F08F03B
:1008B000B0CF9395880F08F09927EE0F97958795FD
:1008C00008950E9475040C9489050E94820558F0D1
:1008D0000E947B0540F029F45F3F29F00C946405E9
:1008E00051110C94BD050C9478050E949A0568F38B
:1008F0009923B1F3552391F3951B550BBB27AA27D9
:1009000062177307840738F09F5F5F4F220F331F12
:10091000441FAA1FA9F335D00E2E3AF0E0E832D0DA
:1009200091505040E695001CCAF72BD0FE2F29D0DD
:10093000660F771F881FBB1F261737074807AB07AF
:10094000B0E809F0BB0B802DBF01FF2793585F4F24
:100950003AF09E3F510578F00C9464050C94BD0567
:100960005F3FE4F3983ED4F3869577956795B79506
:10097000F7959F5FC9F7880F911D9695879597F911
:100980000895E1E0660F771F881FBB1F621773078A
:100990008407BA0720F0621B730B840BBA0BEE1F9F
:1009A00088F7E0950895E89409C097FB3EF4909588
:1009B0008095709561957F4F8F4F9F4F9923A9F038
:1009C000F92F96E9BB279395F695879577956795C7
:1009D000B795F111F8CFFAF4BB0F11F460FF1BC00B
:1009E0006F5F7F4F8F4F9F4F16C0882311F096E99E
:1009F00011C0772321F09EE8872F762F05C066234C
:100A000071F096E8862F70E060E02AF09A95660F04
:100A1000771F881FDAF7880F9695879597F90895BD
:100A20000E947B0520F019F00E94820550F40C947E
:100A300078050C94BD05E92F0E949A0588F355238B
:100A4000B1F3E7FB6217730784079507A8F189F3F1
:100A5000E92FFF2788232AF03197660F771F881F19
:100A6000DAF7952F5527442332F091505040220F4A
:100A7000331F441FD2F7BB27E91BF50B621B730B17
:100A8000840BB109B1F222F4620F731F841FB11DF0
:100A900031972AF0660F771F881FBB1FEFCF915049
:100AA000504062F041F0882332F0660F771F881FB4
:100AB00091505040C1F793950C946A0586957795AF
:100AC00067959F5FD9F7F7CF97F99F6780E870E048
:100AD00060E008959F3F31F0915020F4879577951D
:100AE0006795B795880F911D9695879597F9089505
:100AF0009FEF80EC089500240A9416161706180636
:100B00000906089500240A94121613061406050611
:100B10000895092E0394000C11F4882352F0BB0FA2
:100B200040F4BF2B11F460FF04C06F5F7F4F8F4F05
:100B30009F4F089557FD9058440F551F59F05F3F40
:100B400071F04795880F97FB991F61F09F3F79F0EF
:100B500087950895121613061406551FF2CF469571
:100B6000F1DF08C0161617061806991FF1CF8695F3
:100B70007105610508940895E894BB2766277727D7
:100B8000CB0197F908950E94350608F48FEF089578
:100B90000E94DB050C9489050E947B0538F00E94B9
:100BA000820520F0952311F00C9464050C947805CF
:100BB00011240C94BD050E949A0570F3959FC1F312
:100BC000950F50E0551F629FF001729FBB27F00DFB
:100BD000B11D639FAA27F00DB11DAA1F649F662750
:100BE000B00DA11D661F829F2227B00DA11D621F9F
:100BF000739FB00DA11D621F839FA00D611D221F59
:100C0000749F3327A00D611D231F849F600D211D3C
:100C1000822F762F6A2F11249F5750409AF0F1F0BF
:100C200088234AF0EE0FFF1FBB1F661F771F881F28
:100C300091505040A9F79E3F510580F00C946405F7
:100C40000C94BD055F3FE4F3983ED4F38695779509
:100C50006795B795F795E7959F5FC1F7FE2B880FCE
:100C6000911D9695879597F90895990F0008550F4E
:100C7000AA0BE0E8FEEF16161706E807F907C0F022
:100C800012161306E407F50798F0621B730B840B2A
:100C9000950B39F40A2661F0232B242B252B21F404
:100CA00008950A2609F4A140A6958FEF811D811DA4
:100CB00008950F931F93CF93DF93869F8001879FA3
:100CC000100D969F100D1124C8010E947506EC01AD
:100CD000009729F0A80160E070E00E94A207CE0111
:100CE000DF91CF911F910F910895CF93DF938230C1
:100CF000910510F482E090E0E0918101F091820191
:100D000020E030E0C0E0D0E0309711F14081518127
:100D100048175907C0F04817590761F48281938139
:100D2000209719F09B838A832BC090938201809334
:100D3000810126C02115310519F04217530718F417
:100D40009A01BE01DF01EF010280F381E02DDCCFCB
:100D50002115310509F1281B390B2430310590F498
:100D600012968D919C9113976115710521F0FB01ED
:100D70009383828304C09093820180938101FD015B
:100D8000329644C0FD01E20FF31F819391932250EC
:100D900031092D933C933AC020917F01309180011D
:100DA000232B41F4209104013091050130938001FF
:100DB00020937F012091020130910301211531051B
:100DC00041F42DB73EB74091060150910701241B15
:100DD000350BE0917F01F0918001E217F307A0F459
:100DE0002E1B3F0B2817390778F0AC014E5F5F4F81
:100DF0002417350748F04E0F5F1F50938001409332
:100E00007F018193919302C0E0E0F0E0CF01DF9198
:100E1000CF9108950F931F93CF93DF93009709F419
:100E20008CC0FC01329713821282009181011091D3
:100E300082010115110581F420813181820F931FF8
:100E400020917F01309180012817390779F5F093BF
:100E50008001E0937F0171C0D80140E050E0AE17FF
:100E6000BF0750F412962D913C911397AD012115B7
:100E7000310509F1D901F3CF9D01DA0133832283D2
:100E800060817181860F971F8217930769F4EC01C7
:100E900028813981260F371F2E5F3F4F31832083F2
:100EA0008A819B8193838283452B29F4F09382016D
:100EB000E093810142C01396FC93EE931297ED01EB
:100EC000499159919E01240F351FE217F30771F4E0
:100ED00080819181840F951F029611969C938E9329
:100EE0008281938113969C938E931297E0E0F0E0B9
:100EF000D80112968D919C911397009719F0F801E3
:100F00008C01F6CF8D919C9198012E5F3F4F820FFF
:100F1000931F20917F01309180012817390769F4D0
:100F2000309729F4109282011092810102C013823D
:100F300012821093800100937F01DF91CF911F9166
:100F40000F910895DC0101C06D9341505040E0F7CE
:060F50000895F894FFCFA4
:080F560080010000830120006E
:00000001FF
