:100000000C9434000C945F000C9451000C9451003B
:100010000C9451000C9451000C9451000C9451001C
:100020000C9451000C9451000C9451000C9451000C
:100030000C9451000C94AC000C94F6020C945100FA
:100040000C9451000C9451000C94E1000C9451005C
:100050000C9451000C9451000C9451000C945100DC
:100060000C9451000C94510011241FBECFEFD8E026
:10007000DEBFCDBF12E0A0E0B1E0E6E1FCE102C0EE
:1000800005900D92A032B107D9F712E0A0E2B2E0DC
:1000900001C01D92A636B107E1F70E944A010C94F7
:1000A000090E0C940000529883E08093690081E06F
:1000B0008DBB80936F0084E08093810008951F9230
:1000C0000F920FB60F9211242F933F938F939F930C
:1000D0002091840030918500809126028823F9F0D8
:1000E00080912702882351F0809120029091210273
:1000F000821B930B90932302809322023093210260
:10010000209320028091220290912302820F931F5C
:10011000909325028093240281E08093270210921D
:1001200085001092840081E080932602809128024D
:10013000882311F01092290210922802882319F4C2
:1001400081E0809328029F918F913F912F910F9092
:100150000FBE0F901F9018951F920F920FB60F921F
:10016000112410922602109227021092210210925E
:100170002002109223021092220210922502109265
:1001800024020F900FBE0F901F9018951F9310E040
:1001900008C00E942E03E12FF0E0E25CFD4F808357
:1001A0001F5F0E9424038823A1F380913E028823CD
:1001B00031F4123021F480913F02809310011F919D
:1001C00008951F920F920FB60F9211242F933F9311
:1001D0004F935F936F937F938F939F93AF93BF934F
:1001E000EF93FF930E944A03FF91EF91BF91AF916C
:1001F0009F918F917F916F915F914F913F912F913F
:100200000F900FBE0F901F901895EF92FF920F93D3
:100210001F93609184007091850080E090E00E94BF
:100220005E077B018C01609124027091250280E0C1
:1002300090E00E945E079B01AC01C801B7010E94DB
:100240005E0620E030E044EB53E40E94640521E4C4
:1002500033EA43E452E40E9437059B01AC018091EC
:100260002802882351F4CA01B90120E030E044EBB0
:1002700053E40E9437059B01AC01CA01B90120E09B
:1002800030E044E354E40E94FD0A1F910F91FF9077
:10029000EF900895AF92BF92CF92DF92EF92FF92CC
:1002A0000F931F93DF93CF93CDB7DEB760970FB651
:1002B000F894DEBF0FBECDBF259A0E94DB020E94DC
:1002C00053000E9408030E94B1020E94A802789481
:1002D00090E9A92E91E0B92E7E010894E11CF11C51
:1002E00085E0C82E81E0D82E48990DC0809110017C
:1002F00090E00E94E50288EE93E0F5013197F1F776
:100300000197D9F7F1CF0E94900280E060E040E0D1
:1003100051E00E94720200D000D000D0EDB7FEB7CD
:100320003196ADB7BEB71296FC92EE921197D3827A
:10033000C28280912602848315820E94D20AEDB780
:10034000FEB736960FB6F894FEBF0FBEEDBF84E041
:1003500060E0A7010E94720200D000D000D0EDB78B
:10036000FEB73196ADB7BEB71296FC92EE921197DA
:10037000D382C2828091200290912102958384834E
:100380000E94D20AEDB7FEB736960FB6F894FEBFBC
:100390000FBEEDBF86E060E0A7010E94720280916F
:1003A0002702882339F10E94050100D000D000D037
:1003B0000DB71EB70F5F1F4FADB7BEB71296FC92B9
:1003C000EE921197F801D382C2820E940A07D801E7
:1003D00015967C936E9314970E94D20AEDB7FEB7E0
:1003E00036960FB6F894FEBF0FBEEDBF80E061E019
:1003F000A70104C080E061E048E051E00E94720281
:1004000000D000D000D0EDB7FEB73196ADB7BEB783
:100410001296FC92EE921197D382C28280911001C3
:10042000848315820E94D20AEDB7FEB736960FB6C6
:10043000F894FEBF0FBEEDBF87E061E0A7010E9408
:1004400072020E945F0284EC99E0F5013197F1F7A6
:100450000197D9F749CF5F9A5F9808955D985F98A3
:1004600095B1907F95B925B1982F92959F70922B59
:1004700095B95F9A5F9895B1907F95B995B18F7056
:10048000982B95B95F9A5F9880E89EE30197F1F702
:1004900008955C9A0E942E025C9808955C980E94D0
:1004A0002E020895CF93DF93EC0103C021960E94A2
:1004B000490288818823D1F7DF91CF91089582E0A6
:1004C0000E944E0280915E0290915F020E94520251
:1004D00080EC0E944E0280916002909161020E9425
:1004E00052020895282FDA018031C8F46230B8F43E
:1004F000662329F480915E0290915F0204C080918E
:10050000600290916102FC01E20FF11D02C0919323
:1005100011969C91992319F080818823C1F7089541
:1005200081E00E944E0280915E0290915F0260E243
:1005300070E040E150E00E94CB0A8091600290910F
:10054000610260E270E040E150E00E94CB0A089551
:100550008CE00E944E0288E20E944E020E949002AD
:10056000089584B18F6084B98AB1806B8AB985B1EE
:10057000807F85B9299A5F9A5F9884EF91E020E99E
:1005800031E0F9013197F1F70197D9F781E190E076
:1005900061E070E00E94AA0980935E0290935F027E
:1005A00081E190E061E070E00E94AA09809360021E
:1005B000909361020895EEE6F0E08081826080838E
:1005C00084B5836884BD569A0895982F809111014F
:1005D000882341F01092110197BD8FEF86BD85B53C
:1005E000856085BD08958091110108951F920F9235
:1005F0000FB60F9211248F9385B58A7F85BD81E058
:10060000809311018F910F900FBE0F901F9018953E
:1006100089E190E09093C5008093C400E1ECF0E0A4
:10062000808188698083089540E080912B0290E06A
:1006300001968F70907020912A0230E08217930704
:1006400009F441E0842F089520E090912B028091DD
:100650002A02981709F421E0822F089520912A0296
:1006600030E0F901E25BFD4F80812F5F3F4F2F703B
:10067000307020932A02089520912B0230E0F90176
:10068000E25BFD4F80832F5F3F4F2F7030702093D0
:100690002B0208950F931F93CF93DF93EC0180916A
:1006A000C00088230CF050C04AC01091C600809151
:1006B000C0008C7109F044C00E941403882341F0EB
:1006C00080912A0280932B0210922D0210922C020C
:1006D00090912C02992311F410922D0280912D02F9
:1006E0008823F1F41D3F29F49923E1F000932D02B2
:1006F0001EC01F3F61F4992339F080912A02809334
:100700002B0210922D0209C000932C0210C01E3F34
:1007100049F4992311F0FE01099510922C0207C0AB
:1007200010922D02992319F0812F0E943C03809191
:100730002D02882311F02D9A03C02D9801C001E0ED
:100740008091C00087FDB1CFDF91CF911F910F91B4
:10075000089580912A0280932B0210922D0210920C
:100760002C02089580912A02EEE4F2E0E80FF11DD8
:1007700080810895A0E0B0E0E0ECF3E00C94730910
:10078000DC012B01FA019C91923008F439C1EB0194
:100790008881823008F433C1943069F4843009F0E0
:1007A0002FC111969C9111978981981709F428C13E
:1007B000A2E1B1E025C1843009F421C18230A9F45D
:1007C000923009F01DC19A01AD0188E0EA0109905B
:1007D000AE01E90109929E018150C1F7E2018981D0
:1007E00011969C918923818308C1923009F407C135
:1007F00012962D903C901397EB018A819B81149661
:10080000AD90BD90CD90DC901797EC80FD800E816F
:100810001F819101281B390BB90137FF04C06627DE
:100820007727621B730B603271050CF061C01216E2
:1008300013066CF537014801062E04C09694879480
:10084000779467940A94D2F721E030E040E050E0DA
:1008500004C0220F331F441F551F6A95D2F7215041
:100860003040404050402E213F214023512321154C
:1008700031054105510521F021E030E040E050E034
:1008800079018A01E628F728082919293CC0232B79
:10089000D1F1260E371E35014601062E04C096946E
:1008A0008794779467940A94D2F721E030E040E08F
:1008B00050E004C0220F331F441F551F6A95D2F722
:1008C00021503040404050402A213B214C215D21A5
:1008D000211531054105510521F021E030E040E0CE
:1008E00050E059016A01A628B728C828D9280BC0AA
:1008F000821593052CF01C01AA24BB24650103C0BA
:10090000EE24FF24870111969C91D20111968C91BF
:10091000981709F445C0992339F0A80197012A19BD
:100920003B094C095D0906C0A60195012E193F0936
:10093000400B510B57FD08C0118233822282248361
:100940003583468357831DC081E0818333822282B1
:1009500088279927DC01821B930BA40BB50B84839A
:100960009583A683B7830DC0220F331F441F551FE5
:1009700024833583468357838281938101979383B0
:1009800082832481358146815781DA01C90101972B
:10099000A109B1098F5F9F4FAF4FBF4328F30BC031
:1009A000918333822282EA0CFB1C0C1D1D1DE48204
:1009B000F5820683178383E0808324813581468115
:1009C000578157FF1AC0C901AA2797FDA095BA2FD2
:1009D00081709070A070B0705695479537952795A7
:1009E000822B932BA42BB52B84839583A683B7836B
:1009F00082819381019693838283DF0101C0D201BA
:100A0000CD01CDB7DEB7E2E10C948F09A0E2B0E0F2
:100A1000ECE0F5E00C947F0969837A838B839C83F7
:100A20002D833E834F835887E9E0EE2EF12CEC0EA8
:100A3000FD1ECE010196B7010E94FB088E010F5EDC
:100A40001F4FCE010596B8010E94FB088A8991E0EC
:100A500089278A8BC701B801AE01475E5F4F0E94AC
:100A6000BA030E942608A096E6E00C949B09A0E237
:100A7000B0E0EDE3F5E00C947F0969837A838B8322
:100A80009C832D833E834F835887F9E0EF2EF12C12
:100A9000EC0EFD1ECE010196B7010E94FB088E01EF
:100AA0000F5E1F4FCE010596B8010E94FB08C701DB
:100AB000B801AE01475E5F4F0E94BA030E9426084C
:100AC000A096E6E00C949B09A0E2B0E0EAE6F5E02F
:100AD0000C94730969837A838B839C832D833E8373
:100AE0004F835887CE010196BE01675F7F4F0E94FA
:100AF000FB08CE010596BE016F5E7F4F0E94FB088A
:100B00009985923088F089898230C8F0943019F440
:100B1000823051F404C0843029F4923081F482E1AF
:100B200091E0C6C0923049F420E09A858A899813F2
:100B300021E02A87CE010996BBC0823049F420E02B
:100B40009A858A89981321E02A8BCE014196B0C0FC
:100B50002D843E844F8458886D887E888F88988C39
:100B6000EE24FF248701AA24BB24650140E050E065
:100B700060E070E0E0E0F0E0C10181709070892BEE
:100B8000E9F0E60CF71C081D191D9A01AB012A0DAE
:100B90003B1D4C1D5D1D80E090E0A0E0B0E0E61440
:100BA000F7040805190520F481E090E0A0E0B0E02A
:100BB000BA01A901480F591F6A1F7B1FAA0CBB1C51
:100BC000CC1CDD1C97FE08C081E090E0A0E0B0E006
:100BD000A82AB92ACA2ADB2A3196E032F10549F05F
:100BE000660C771C881C991C56944794379427945C
:100BF000C3CFFA85EA892B893C898B859C85280F90
:100C0000391F2E5F3F4F17C0CA0181709070892B2A
:100C100061F016950795F794E79480E090E0A0E0E6
:100C2000B0E8E82AF92A0A2B1B2B76956795579589
:100C300047952F5F3F4F77FDE7CF0CC0440F551FFF
:100C4000661F771F17FD4160EE0CFF1C001F111F70
:100C500021503040403090E0590790E0690790E41F
:100C6000790760F32B8F3C8FDB01CA018F7790707F
:100C7000A070B07080349105A105B10561F447FD05
:100C80000AC0E114F1040105110529F0405C5F4F31
:100C90006F4F7F4F40781A8EFE1711F081E08A8FD8
:100CA0004D8F5E8F6F8F78A383E0898FCE01499639
:100CB0000E942608A096E2E10C948F09A8E1B0E01A
:100CC000E4E6F6E00C947B0969837A838B839C834A
:100CD0002D833E834F835887B9E0EB2EF12CEC0E29
:100CE000FD1ECE010196B7010E94FB088E010F5E2A
:100CF0001F4FCE010596B8010E94FB0829852230BE
:100D000008F47EC03989323010F4B8017CC08A857D
:100D10009A8989278A87243011F0223031F42317E9
:100D200009F06EC062E171E06EC0343039F41D86A6
:100D30001E861F86188A1C861B8604C0323021F44A
:100D400084E08987B7015FC02B853C858B899C89AE
:100D5000281B390B3C872B87ED84FE840F8518896F
:100D6000AD88BE88CF88D88CEA14FB040C051D051D
:100D700040F4EE0CFF1C001F111F215030403C8737
:100D80002B8720E030E040E050E080E090E0A0E001
:100D9000B0E460E070E0EA14FB040C051D0540F0CF
:100DA000282B392B4A2B5B2BEA18FB080C091D0951
:100DB000B695A79597958795EE0CFF1C001F111F00
:100DC0006F5F7F4F6F31710531F7DA01C9018F779E
:100DD0009070A070B07080349105A105B10561F4E8
:100DE00027FD0AC0E114F1040105110529F0205C7A
:100DF0003F4F4F4F5F4F20782D873E874F87588B4F
:100E0000BE01675F7F4FCB010E9426086896EAE02B
:100E10000C949709ACE0B0E0E0E1F7E00C948309B2
:100E200069837A838B839C83CE010196BE016B5FBD
:100E30007F4F0E94FB088D81823061F1823050F13A
:100E4000843021F48E81882351F12EC02F81388582
:100E500037FD20C06E812F3131051CF06623F9F07B
:100E600023C08EE190E0821B930B29853A854B8548
:100E70005C8504C056954795379527958A95D2F796
:100E80006623B1F050954095309521953F4F4F4FD7
:100E90005F4F0EC020E030E040E050E009C02FEF8F
:100EA0003FEF4FEF5FE704C020E030E040E050E864
:100EB000B901CA012C96E2E00C949F09A8E0B0E0C9
:100EC000E4E6F7E00C947B097B018C016115710568
:100ED0008105910519F482E0898360C083E08983EC
:100EE0008EE1C82ED12CDC82CB82ED82FE820F8374
:100EF0001887C801B7010E94D707FC013197F7FF97
:100F00003BC0222733272E1B3F0B57016801022EBF
:100F100004C0D694C794B794A7940A94D2F740E03B
:100F200050E060E070E081E090E0A0E0B0E004C05C
:100F3000880F991FAA1FBB1F2A95D2F70197A109F5
:100F4000B1098E219F21A023B1230097A105B105EE
:100F500021F041E050E060E070E04A295B296C2913
:100F60007D294D835E836F8378878EE190E08E1BB1
:100F70009F0B9C838B8312C0309781F00E2E04C090
:100F8000EE0CFF1C001F111F0A94D2F7ED82FE82A7
:100F90000F831887CE1ADF0ADC82CB821A82CE0139
:100FA00001960E9426082896EAE00C949709EF9291
:100FB000FF920F931F937B018C0180E0E81680E085
:100FC000F80681E0080780E0180788F48FEFE8163C
:100FD000F1040105110531F028F088E090E0A0E06F
:100FE000B0E017C080E090E0A0E0B0E012C080E088
:100FF000E81680E0F80680E0080781E0180728F08E
:1010000088E190E0A0E0B0E004C080E190E0A0E0E2
:10101000B0E020E230E040E050E0281B390B4A0B02
:101020005B0B04C016950795F794E7948A95D2F761
:10103000F701E65EFE4F8081281B31094109510905
:10104000C9011F910F91FF90EF900895DF92EF92E9
:10105000FF920F931F93FC01E480F58006811781B6
:10106000D1808081823048F480E090E0A0E1B0E05F
:10107000E82AF92A0A2B1B2BA5C0843009F49FC04B
:10108000823021F4EE24FF24870105C0E114F1042D
:101090000105110519F4E0E0F0E096C0628173816A
:1010A0009FEF623879070CF05BC022E83FEF261B08
:1010B000370B2A3131052CF020E030E040E050E0E1
:1010C0002AC0B801A701022E04C0769567955795EE
:1010D00047950A94D2F781E090E0A0E0B0E004C028
:1010E000880F991FAA1FBB1F2A95D2F70197A10944
:1010F000B1098E219F21A023B1230097A105B1053D
:1011000021F081E090E0A0E0B0E09A01AB01282B53
:10111000392B4A2B5B2BDA01C9018F779070A070B5
:10112000B07080349105A105B10539F427FF09C0DD
:10113000205C3F4F4F4F5F4F04C0215C3F4F4F4FEC
:101140005F4FE0E0F0E02030A0E03A07A0E04A077F
:10115000A0E45A0710F0E1E0F0E079018A0127C02D
:101160006038710564F5FB01E158FF4FD801C701F4
:101170008F779070A070B07080349105A105B10593
:1011800039F4E7FE0DC080E490E0A0E0B0E004C0D8
:101190008FE390E0A0E0B0E0E80EF91E0A1F1B1FED
:1011A00017FF05C016950795F794E794319687E0E9
:1011B00016950795F794E7948A95D1F705C0EE2424
:1011C000FF248701EFEFF0E06E2F679566276795A4
:1011D000902F9F77D794DD24D7948E2F8695492F13
:1011E000462B582F5D29B701CA011F910F91FF901F
:1011F000EF90DF900895FC01DB0140815181228155
:10120000622F6F7770E0221F2227221F9381892F80
:10121000880F822B282F30E0991F9927991F11964C
:101220009C93119721153105A9F5411551056105CB
:10123000710511F482E037C082E89FEF13969C930A
:101240008E9312979A01AB0167E0220F331F441F60
:10125000551F6A95D1F783E08C930DC0220F331F81
:10126000441F551F12968D919C91139701971396C9
:101270009C938E931297203080E0380780E04807D7
:1012800080E4580758F314962D933D934D935C9347
:10129000179708952F3F310579F4411551056105E0
:1012A000710519F484E08C93089564FF03C081E014
:1012B0008C9312C01C9210C02F57304013963C9351
:1012C0002E93129783E08C9387E0440F551F661F7F
:1012D000771F8A95D1F7706414964D935D936D9343
:1012E0007C93179708952F923F924F925F926F923F
:1012F0007F928F929F92AF92BF92CF92DF92EF92A6
:10130000FF920F931F93CF93DF93CDB7DEB7CA1B26
:10131000DB0B0FB6F894DEBF0FBECDBF09942A8851
:10132000398848885F846E847D848C849B84AA84F9
:10133000B984C884DF80EE80FD800C811B81AA8186
:10134000B981CE0FD11D0FB6F894DEBF0FBECDBF51
:10135000ED0108950F931F93CF93DF93689F800152
:10136000699F100D789F100D1124C8010E94C609B5
:10137000EC01009729F060E070E0A8010E94CB0A20
:10138000CE01DF91CF911F910F910895CF93DF93FD
:10139000BC018230910510F462E070E0A09164021B
:1013A000B0916502ED01E0E0F0E040E050E021C0E6
:1013B000888199818617970769F48A819B81309784
:1013C00019F09383828304C0909365028093640232
:1013D000FE0134C06817790738F44115510519F03A
:1013E0008417950708F4AC01FE018A819B819C015A
:1013F000E9012097E9F641155105A9F1CA01861BBB
:10140000970B049708F4BA01E0E0F0E02AC08D9150
:101410009C91119784179507F9F46417750781F467
:1014200012968D919C911397309719F09383828334
:1014300004C09093650280936402FD0132964FC010
:10144000CA01861B970BFD01E80FF91F6193719389
:1014500002978D939C9343C0FD01828193819C01EF
:10146000D9011097A1F68091620290916302892BB5
:1014700041F480911C0290911D029093630280932D
:10148000620240911E0250911F024115510541F424
:101490004DB75EB780911A0290911B02481B590B01
:1014A000209162023091630224173507B0F4CA011B
:1014B000821B930B8617970780F0AB014E5F5F4F3F
:1014C0008417950750F0420F531F509363024093C7
:1014D0006202F9016193719302C0E0E0F0E0CF0194
:1014E000DF91CF910895CF93DF93009709F450C017
:1014F000EC0122971B821A82A0916402B0916502CE
:10150000109709F140E050E0AC17BD0708F1BB832C
:10151000AA83FE0121913191E20FF31FAE17BF079D
:1015200079F48D919C911197280F391F2E5F3F4FB1
:101530003983288312968D919C9113979B838A837C
:101540004115510571F4D0936502C093640220C027
:1015500012968D919C911397AD01009711F0DC01CB
:10156000D3CFFA01D383C28321913191E20FF31FCC
:10157000CE17DF0769F488819981280F391F2E5F04
:101580003F4FFA01318320838A819B819383828339
:10159000DF91CF910895DC0101C06D93415050401F
:1015A000E0F70895AEE0B0E0E8EDFAE00C948109D0
:1015B0000D891E8986E08C831A8309838FEF9FE74C
:1015C0009E838D839E01275E3F4FCE0101966F89DA
:1015D000788DA9010E948C0B2F813885020F131F73
:1015E000F80110822E96E4E00C949D095ED018F06C
:1015F00011F062D038F456C089C0E92F64D0B0F33E
:101600005523C9F3E7FB6217730784079507A8F111
:1016100099F3E92FFF2788232AF03197660F771F68
:10162000881FDAF7952F5527442332F09150504008
:10163000220F331F441FD2F7BB27E91BF50B621B98
:10164000730B840BB109C1F222F4620F731F841F64
:10165000B11D31972AF0660F771F881FBB1FEFCF90
:10166000915050405AF041F0882332F0660F771FB6
:10167000881F91505040C1F7939506C08695779585
:1016800067959F5FD9F7F8CF9F3F31F0915020F4D5
:10169000879577956795B795880F911D969587954E
:1016A00097F908959FEF80EC089500240A94161688
:1016B000170618060906089500240A941216130640
:1016C00014060506089557FD9058440F551F59F00C
:1016D0005F3F71F04795880F97FB991F61F09F3F1F
:1016E00079F087950895121613061406551FF2CF48
:1016F0004695F1DF08C0161617061806991FF1CF98
:1017000086957105610508940895E894BB276627BE
:101710007727CB0197F90895ABE0B0E0E2E9FBE071
:101720000C9473093C012B015A01FC0117821682AB
:10173000838181FD03C06FEF7FEFC6C19AE0892EE0
:101740001E010894211C311CF3012381F20123FDA9
:10175000859123FF81912F01882309F4B2C185323D
:1017600039F423FD859123FF81912F01853229F4DE
:1017700090E0B3010E947F0DE7CF982FFF24EE2465
:101780009924FFE1FF15D0F09B3269F09C3228F4D8
:10179000903259F0933291F40EC09D3249F090335B
:1017A00069F441E024C052E0F52A84E0F82A28C018
:1017B00098E0F92A25C0E0E1FE2A22C0F7FC29C002
:1017C000892F80538A3070F4F6FE05C0989C902CC7
:1017D0001124980E15C0E89CE02C1124E80EF0E2CC
:1017E000FF2A0EC09E3229F4F6FC6BC140E4F42AB5
:1017F00007C09C3619F450E8F52A02C0983649F41F
:10180000F20123FD959123FF91912F01992309F076
:10181000B8CF892F8554833018F08052833038F444
:1018200044E050E0A40EB51E5FE359830FC0933629
:1018300031F0933779F0933509F056C020C0F501A7
:101840008081898342E050E0A40EB51E610101E071
:1018500010E012C0F501C080D180F6FC03C06FEF2C
:101860007FEF02C0692D70E042E050E0A40EB51E8B
:10187000C6010E94740D8C015FE7F52214C0F501CA
:10188000C080D180F6FC03C06FEF7FEF02C0692DEE
:1018900070E042E050E0A40EB51EC6010E94690D42
:1018A0008C0150E8F52AF3FE07C01AC080E290E0F0
:1018B000B3010E947F0DEA948E2D90E0081719075E
:1018C000A8F30EC0F601F7FC8591F7FE81916F0138
:1018D00090E0B3010E947F0DE110EA9401501040A6
:1018E0000115110579F7EAC0943611F0993669F5BA
:1018F000F7FE08C0F501208131814281538184E0E7
:1019000090E00AC0F501808191819C01442737FD58
:101910004095542F82E090E0A80EB91E9FE6F92270
:1019200057FF09C050954095309521953F4F4F4F37
:101930005F4FE0E8FE2ACA01B901A1012AE030E0C8
:101940000E94AB0DD82ED21840C0953729F41F2D18
:101950001F7E2AE030E01DC01F2D197F9F3661F0E9
:10196000903720F4983509F0ACC00FC0903739F0AB
:10197000983709F0A6C004C028E030E00AC0106122
:1019800014FD146020E130E004C014FD166020E175
:1019900032E017FF08C0F501608171818281938177
:1019A00044E050E008C0F50180819181BC0180E0F5
:1019B00090E042E050E0A40EB51EA1010E94AB0DE4
:1019C000D82ED2188FE7F82EF122F6FE0BC05EEF6C
:1019D000F522D91438F4F4FE07C0F2FC05C08FEEEE
:1019E000F82202C01D2D01C0192DF4FE0DC0FE010C
:1019F000ED0DF11D8081803319F499EEF92208C0B4
:101A00001F5FF2FE05C003C08F2D867809F01F5FAF
:101A10000F2DF3FC14C0F0FE0FC01E1510F09D2C0E
:101A20000BC09D2C9E0C911A1E2D06C080E290E0EA
:101A3000B3010E947F0D1F5F1E15C0F304C01E1569
:101A400010F4E11A01C0EE2404FF0FC080E390E01F
:101A5000B3010E947F0D02FF1DC001FD03C088E796
:101A600090E00EC088E590E00BC0802F867891F062
:101A700001FF02C08BE201C080E2F7FC8DE290E042
:101A8000B3010E947F0D06C080E390E0B3010E9485
:101A90007F0D9A94D914C0F3DA94F101ED0DF11D84
:101AA000808190E0B3010E947F0DDD20A9F706C080
:101AB00080E290E0B3010E947F0DEA94EE20C1F72E
:101AC00043CEF30166817781CB012B96E2E10C9442
:101AD0008F09FC010590615070400110D8F7809586
:101AE00090958E0F9F1F0895FC01615070400190EA
:101AF0000110D8F7809590958E0F9F1F08950F9332
:101B00001F93CF93DF938C01EB018B8181FF1BC06F
:101B100082FF0DC02E813F818C819D81281739075E
:101B200064F4E881F9810193F983E88306C0E885CC
:101B3000F985802F0995892B31F48E819F8101963B
:101B40009F838E8302C00FEF1FEFC801DF91CF91FB
:101B50001F910F910895FA01AA27283051F12031E1
:101B600081F1E8946F936E7F6E5F7F4F8F4F9F4F31
:101B7000AF4FB1E03ED0B4E03CD0670F781F891F73
:101B80009A1FA11D680F791F8A1F911DA11D6A0F41
:101B9000711D811D911DA11D20D009F468943F91F4
:101BA0002AE0269F11243019305D3193DEF6CF01F3
:101BB0000895462F4770405D4193B3E00FD0C9F7B9
:101BC000F6CF462F4F70405D4A3318F0495D31FD26
:101BD0004052419302D0A9F7EACFB4E0A695979579
:101BE000879577956795BA95C9F70097610571054F
:101BF00008959B01AC010A2E069457954795379599
:101C00002795BA95C9F7620F731F841F951FA01DF2
:061C10000895F894FFCFD7
:101C160052756E3A002575004E54494D494E47009F
:101C26008001000000000000000000010202030322
:101C3600030304040404040404040505050505055A
:101C46000505050505050505050506060606060638
:101C5600060606060606060606060606060606061E
:101C66000606060606060606060607070707070708
:101C760007070707070707070707070707070707EE
:101C860007070707070707070707070707070707DE
:101C960007070707070707070707070707070707CE
:101CA60007070707070707070707080808080808B8
:101CB600080808080808080808080808080808089E
:101CC600080808080808080808080808080808088E
:101CD600080808080808080808080808080808087E
:101CE600080808080808080808080808080808086E
:101CF600080808080808080808080808080808085E
:101D0600080808080808080808080808080808084D
:101D1600080808080808080808080808080808083D
:101D260008080808080808080808200066020000D5
:00000001FF
