:100000000C9434000C9451000C9451000C94510049
:100010000C9451000C9451000C9451000C9451001C
:100020000C9451000C9451000C9451000C9451000C
:100030000C9451000C9451000C948F000C945100BE
:100040000C9451000C9451000C9451000C945100EC
:100050000C9451000C9451000C9451000C945100DC
:100060000C9451000C94510011241FBECFEFD8E026
:10007000DEBFCDBF11E0A0E0B1E0E0EAF5E002C0F4
:1000800005900D92A830B107D9F711E0A8E0B1E0D2
:1000900001C01D92A231B107E1F70E94C4000C9487
:1000A000CE020C940000ECE7F0E080818064808355
:1000B000EAE7F0E08081856080838081806E8083C4
:1000C000089589E190E09093C5008093C400E1EC2D
:1000D000F0E08081806180830895EEE6F0E0808129
:1000E0008260808384B5836884BD569A789408952D
:1000F000282F80910001882389F0109200018091BF
:1001000008019091090101969093090180930801DB
:1001100027BD8FEF86BD85B5856085BD08951F928B
:100120000F920FB60F9211248F939F9385B58A7FFC
:1001300085BD809108019091090101979093090173
:100140008093080181E0809300019F918F910F902F
:100150000FBE0F901F9018958091C00087FF13C0AD
:1001600020E090E008C08091C00090E08C7109F41C
:1001700091E02091C6008091C00087FDF4CF9923C3
:1001800011F0209301010895CF93DF93259A0E94E7
:1001900053000E946D0089E190E09093C500809328
:1001A000C4008091C10080618093C1000E947C01E5
:1001B0000E947301C0E9D1E080910801909109018A
:1001C000892B11F02D9A01C02D980E94AC004899FE
:1001D00005C08091010190E00E94780088EE93E0D4
:1001E000FE013197F1F7019739F3FACF5F9A5F98E3
:1001F00008955D985F9895B1907F95B925B1982F36
:1002000092959F70922B95B95F9A5F9895B1907F68
:1002100095B995B18F70982B95B95F9A5F9880E8E2
:100220009EE30197F1F708955C9A0E94F9005C98AB
:1002300008955C980E94F9000895CF93DF93EC0134
:1002400003C021960E94140188818823D1F7DF9191
:10025000CF91089582E00E94190180910A01909146
:100260000B010E941D0180EC0E94190180910C017C
:1002700090910D010E941D010895282FDA0180310F
:10028000C8F46230B8F4662329F480910A01909191
:100290000B0104C080910C0190910D01FC01E20F53
:1002A000F11D02C0919311969C91992319F08081C0
:1002B0008823C1F7089581E00E94190180910A0105
:1002C00090910B0160E270E040E150E00E94C702B3
:1002D00080910C0190910D0160E270E040E150E0EE
:1002E0000E94C70208958CE00E94190188E20E94D2
:1002F00019010E945B01089584B18F6084B98AB1AD
:10030000806B8AB985B1807F85B9299A5F9A5F9899
:1003100084EF91E020E931E0F9013197F1F701979D
:10032000D9F781E190E061E070E00E94A60180933E
:100330000A0190930B0181E190E061E070E00E947E
:10034000A60180930C0190930D0108950F931F93C4
:10035000CF93DF93689F8001699F100D789F100DE8
:100360001124C8010E94C201EC01009729F060E04D
:1003700070E0A8010E94C702CE01DF91CF911F91CA
:100380000F910895CF93DF93BC018230910510F453
:1003900062E070E0A0911001B0911101ED01E0E088
:1003A000F0E040E050E021C08881998186179707EE
:1003B00069F48A819B81309719F09383828304C00A
:1003C0009093110180931001FE0134C068177907E2
:1003D00038F44115510519F08417950708F4AC015C
:1003E000FE018A819B819C01E9012097E9F6411574
:1003F0005105A9F1CA01861B970B049708F4BA01AD
:10040000E0E0F0E02AC08D919C9111978417950748
:10041000F9F46417750781F412968D919C911397E6
:10042000309719F09383828304C0909311018093D5
:100430001001FD0132964FC0CA01861B970BFD01CA
:10044000E80FF91F6193719302978D939C9343C0BA
:10045000FD01828193819C01D9011097A1F68091C1
:100460000E0190910F01892B41F48091040190912C
:10047000050190930F0180930E0140910601509168
:1004800007014115510541F44DB75EB78091020156
:1004900090910301481B590B20910E0130910F01DF
:1004A00024173507B0F4CA01821B930B86179707F0
:1004B00080F0AB014E5F5F4F8417950750F0420FFD
:1004C000531F50930F0140930E01F90161937193F3
:1004D00002C0E0E0F0E0CF01DF91CF910895CF932B
:1004E000DF93009709F450C0EC0122971B821A8217
:1004F000A0911001B0911101109709F140E050E076
:10050000AC17BD0708F1BB83AA83FE01219131918D
:10051000E20FF31FAE17BF0779F48D919C911197ED
:10052000280F391F2E5F3F4F3983288312968D91F4
:100530009C9113979B838A834115510571F4D09345
:100540001101C093100120C012968D919C911397B8
:10055000AD01009711F0DC01D3CFFA01D383C28340
:1005600021913191E20FF31FCE17DF0769F48881E3
:100570009981280F391F2E5F3F4FFA013183208365
:100580008A819B8193838283DF91CF910895DC01DF
:1005900001C06D9341505040E0F70895F894FFCFAB
:0805A00001802000120100009F
:00000001FF
