:100000000C9434000C94B0000C9451000C945100EA
:100010000C9451000C9451000C9451000C9451001C
:100020000C9451000C9451000C9451000C9451000C
:100030000C9451000C94FA000C94DB010C945100C8
:100040000C9451000C9451000C94ED010C941B0283
:100050000C9451000C9451000C9451000C945100DC
:100060000C9451000C94510011241FBECFEFD8E026
:10007000DEBFCDBF11E0A0E0B1E0E8E7FDE002C0E7
:1000800005900D92A830B107D9F721E0A8E0B1E0C2
:1000900001C01D92A238B207E1F70E9421030C941F
:1000A000BA060C94000080916B010E947C02809142
:1000B0006A0181110BC080915901823039F480911D
:1000C0006B018093000190E00C94CB01089552984D
:1000D00083E08093690081E08DBB80936F0084E0B2
:1000E000809381000895CF92DF92EF92FF9260910A
:1000F00084007091850080E090E00E940D046B0107
:100100007C0180910C0190910D01BC0180E090E098
:100110000E940D049B01AC01C701B6010E949B0324
:1001200020E030E044EB53E40E94FD0421E433EA94
:1001300043E452E40E942F0320910901211106C0DB
:1001400020E030E044EB53E40E942F0320E030E055
:1001500044E354E4FF90EF90DF90CF900C9455046B
:100160001F920F920FB60F9211242F933F938F93EC
:100170009F93809184009091850020910B01222310
:10018000F9F020910A01222351F0209110013091C1
:100190001101281B390B30930F0120930E0190930E
:1001A00011018093100120910E0130910F01820FF7
:1001B000931F90930D0180930C0181E080930A01BD
:1001C000109285001092840081E080930B01909141
:1001D000090191111092080181E0911180E0809352
:1001E00009019F918F913F912F910F900FBE0F901A
:1001F0001F9018951F920F920FB60F921124109214
:100200000B0110920A01109211011092100110922C
:100210000F0110920E0110920D0110920C010F901F
:100220000FBE0F901F9018955F9A5F980895CF9317
:10023000C82F5D985F9885B1807F85B985B19C2F67
:1002400092959F70892B85B90E94140185B1807F9A
:1002500085B985B1CF70C82BC5B90E9414018FE74D
:100260009EE30197F1F700C00000CF9108955C9ADA
:100270000E9417015C9808955C980C941701CF9325
:10028000DF93EC018991882319F00E943701FACF9E
:10029000DF91CF91089584B18F6084B98AB1806B6A
:1002A0008AB985B1807F85B9299A0E9414012FEF00
:1002B00080E792E0215080409040E1F700C00000CC
:1002C00061E070E081E190E00E946A0590937B011B
:1002D00080937A0161E070E081E190E00E946A051C
:1002E00090937D0180937C01089581E00E943C0100
:1002F00040E150E060E270E080917A0190917B01F2
:100300000E94B30640E150E060E270E080917C0121
:1003100090917D010C94B3068CE00E943C0188E230
:100320000E943C010C94750182E00E943C01809186
:100330007A0190917B010E943F0180EC0E943C0178
:1003400080917C0190917D010C943F018031C0F43B
:100350006230B0F4611105C0E0917A01F0917B0147
:1003600004C0E0917C01F0917D01DA01E80FF11DFC
:100370008D91882329F09081992311F08193F8CFF2
:100380000895EEE6F0E080818260808384B5836822
:1003900084BD569A089590910101992341F01092DD
:1003A000010187BD8FEF86BD85B5856085BD089548
:1003B0008091010108951F920F920FB60F921124A0
:1003C0008F9385B58A7F85BD81E0809301018F91F0
:1003D0000F900FBE0F901F9018951F920F920FB69F
:1003E0000F9211242F938F939F93EF93FF938091FC
:1003F000C0009091C6008C71E0911401EF5FEF7125
:1004000020911301E21739F0E0931401F0E0E95E66
:10041000FE4F908301C082E090911201892B80935E
:100420001201FF91EF919F918F912F910F900FBE2D
:100430000F901F9018951F920F920FB60F921124D4
:100440008F939F93EF93FF939091160180911501E5
:10045000981769F0E0911501EF5FEF71E0931501D6
:10046000F0E0E95CFE4F80818093C60005C080917A
:10047000C1008F7D8093C100FF91EF919F918F917B
:100480000F900FBE0F901F901895109216011092AA
:100490001501109214011092130197FF03C022E07E
:1004A0002093C00090789093C5008093C40088E9A1
:1004B0008093C10086E08093C2000895909114015A
:1004C000809113019817A9F0909113019F5F9F717C
:1004D000E92FF0E0E95EFE4F2081809112019093B8
:1004E00013011092120190E0982F8827820F911D1E
:1004F000089580E091E00895909116019F5F9F71AB
:10050000209115019217E1F3E92FF0E0E95CFE4F2D
:100510008083909316018091C10080628093C10016
:100520000895CF93DF93EC018991882319F00E94FD
:100530007C02FACFDF91CF910895CF93DF93FC0136
:100540008491EF012196882321F00E947C02FE0114
:10055000F7CFDF91CF91089589E190E00C944502A7
:1005600081E090915901903108F480E0089581E094
:1005700090915901911180E0089580E00895E091F3
:10058000590191E09E0F90935901F0E0E659FE4F1A
:1005900080830895109259011092570110925801CA
:1005A00008950F931F93CF93DF938C010E945E02F7
:1005B000EC019C01222721153105A9F580915901F3
:1005C000803110F00E94CA0290915801911102C02E
:1005D000109257018091570181111AC0CD3FD1056A
:1005E00031F4992349F181E08093570125C0CF3F31
:1005F00031F40E94CA0281E0809358011DC0CE3FB1
:1006000049F4992311F0F80109951092580114C08A
:1006100010925701992381F08C2FDF91CF911F9178
:100620000F910C94BF022115314031F0DF91CF9131
:100630001F910F910C94CA02DF91CF911F910F91DE
:100640000895259A0E94C1010E9467000E94AC0291
:10065000789483E590E00E94D102FBCF5058BB27ED
:10066000AA270E9446030C94C3040E94B50438F0E4
:100670000E94BC0420F039F49F3F19F426F40C9436
:10068000B2040EF4E095E7FB0C949E04E92F0E945F
:10069000D40458F3BA17620773078407950720F04C
:1006A00079F4A6F50C94F6040EF4E0950B2EBA2F0F
:1006B000A02D0B01B90190010C01CA01A001112468
:1006C000FF27591B99F0593F50F4503E68F11A1614
:1006D000F040A22F232F342F4427585FF3CF4695A5
:1006E00037952795A795F0405395C9F77EF41F16C7
:1006F000BA0B620B730B840BBAF09150A1F0FF0F91
:10070000BB1F661F771F881FC2F70EC0BA0F621F7C
:10071000731F841F48F4879577956795B795F7956C
:100720009E3F08F0B0CF9395880F08F09927EE0F01
:100730009795879508950E94AF030C94C3040E9477
:10074000BC0458F00E94B50440F029F45F3F29F042
:100750000C949E0451110C94F7040C94B2040E9462
:10076000D40468F39923B1F3552391F3951B550BEA
:10077000BB27AA2762177307840738F09F5F5F4F74
:10078000220F331F441FAA1FA9F335D00E2E3AF0B3
:10079000E0E832D091505040E695001CCAF72BD0CB
:1007A000FE2F29D0660F771F881FBB1F261737071C
:1007B0004807AB07B0E809F0BB0B802DBF01FF274E
:1007C00093585F4F3AF09E3F510578F00C949E0489
:1007D0000C94F7045F3FE4F3983ED4F38695779545
:1007E0006795B795F7959F5FC9F7880F911D969507
:1007F000879597F90895E1E0660F771F881FBB1F63
:10080000621773078407BA0720F0621B730B840B0F
:10081000BA0BEE1F88F7E0950895E89409C097FB9E
:100820003EF490958095709561957F4F8F4F9F4FC7
:100830009923A9F0F92F96E9BB279395F69587950B
:1008400077956795B795F111F8CFFAF4BB0F11F4CE
:1008500060FF1BC06F5F7F4F8F4F9F4F16C0882375
:1008600011F096E911C0772321F09EE8872F762FAB
:1008700005C0662371F096E8862F70E060E02AF0EC
:100880009A95660F771F881FDAF7880F96958795D8
:1008900097F908950E94B50420F019F00E94BC0455
:1008A00050F40C94B2040C94F704E92F0E94D40481
:1008B00088F35523B1F3E7FB6217730784079507A5
:1008C000A8F189F3E92FFF2788232AF03197660FD3
:1008D000771F881FDAF7952F5527442332F0915060
:1008E0005040220F331F441FD2F7BB27E91BF50BE3
:1008F000621B730B840BB109B1F222F4620F731FF8
:10090000841FB11D31972AF0660F771F881FBB1F08
:10091000EFCF9150504062F041F0882332F0660FE3
:10092000771F881F91505040C1F793950C94A404F1
:100930008695779567959F5FD9F7F7CF97F99F676A
:1009400080E870E060E008959F3F31F0915020F41E
:10095000879577956795B795880F911D969587959B
:1009600097F908959FEF80EC089500240A941616D5
:10097000170618060906089500240A94121613068D
:10098000140605060895092E0394000C11F488231B
:1009900052F0BB0F40F4BF2B11F460FF04C06F5F37
:1009A0007F4F8F4F9F4F089557FD9058440F551F0D
:1009B00059F05F3F71F04795880F97FB991F61F0E1
:1009C0009F3F79F087950895121613061406551F58
:1009D000F2CF4695F1DF08C0161617061806991FC4
:1009E000F1CF86957105610508940895E894BB27B9
:1009F00066277727CB0197F908950E9410050C947C
:100A0000C3040E94B50438F00E94BC0420F0952372
:100A100011F00C949E040C94B20411240C94F7046D
:100A20000E94D40470F3959FC1F3950F50E0551FB9
:100A3000629FF001729FBB27F00DB11D639FAA2733
:100A4000F00DB11DAA1F649F6627B00DA11D661F82
:100A5000829F2227B00DA11D621F739FB00DA11DA3
:100A6000621F839FA00D611D221F749F3327A00D5D
:100A7000611D231F849F600D211D822F762F6A2FF9
:100A800011249F5750409AF0F1F088234AF0EE0F5E
:100A9000FF1FBB1F661F771F881F91505040A9F78B
:100AA0009E3F510580F00C949E040C94F7045F3F28
:100AB000E4F3983ED4F3869577956795B795F795C7
:100AC000E7959F5FC1F7FE2B880F911D969587953F
:100AD00097F908950F931F93CF93DF93869F80011B
:100AE000879F100D969F100D1124C8010E94860546
:100AF000EC01009729F0A80160E070E00E94B306C5
:100B0000CE01DF91CF911F910F910895CF93DF9385
:100B10008230910510F482E090E0E0918001F09144
:100B2000810120E030E0C0E0D0E0309711F1408159
:100B3000518148175907C0F04817590761F482815D
:100B40009381209719F09B838A832BC09093810116
:100B50008093800126C02115310519F042175307F3
:100B600018F49A01BE01DF01EF010280F381E02D4C
:100B7000DCCF2115310509F1281B390B2430310553
:100B800090F412968D919C9113976115710521F047
:100B9000FB019383828304C0909381018093800141
:100BA000FD01329644C0FD01E20FF31F8193919342
:100BB000225031092D933C933AC020917E0130910F
:100BC0007F01232B41F420910401309105013093E2
:100BD0007F0120937E0120910201309103012115B4
:100BE000310541F42DB73EB7409106015091070100
:100BF000241B350BE0917E01F0917F01E217F30792
:100C0000A0F42E1B3F0B2817390778F0AC014E5F7C
:100C10005F4F2417350748F04E0F5F1F50937F0139
:100C200040937E018193919302C0E0E0F0E0CF0118
:100C3000DF91CF9108950F931F93CF93DF93009788
:100C400009F48CC0FC01329713821282009180015A
:100C5000109181010115110581F420813181820FEC
:100C6000931F20917E0130917F012817390779F574
:100C7000F0937F01E0937E0171C0D80140E050E025
:100C8000AE17BF0750F412962D913C911397AD010A
:100C90002115310509F1D901F3CF9D01DA01338323
:100CA000228360817181860F971F8217930769F4F1
:100CB000EC0128813981260F371F2E5F3F4F31838A
:100CC00020838A819B8193838283452B29F4F0932F
:100CD0008101E093800142C01396FC93EE9312973A
:100CE000ED01499159919E01240F351FE217F30739
:100CF00071F480819181840F951F029611969C93C7
:100D00008E938281938113969C938E931297E0E049
:100D1000F0E0D80112968D919C911397009719F0ED
:100D2000F8018C01F6CF8D919C9198012E5F3F4F79
:100D3000820F931F20917E0130917F012817390780
:100D400069F4309729F4109281011092800102C059
:100D50001382128210937F0100937E01DF91CF9165
:100D60001F910F910895DC0101C06D9341505040D7
:080D7000E0F70895F894FFCFAD
:080D780080010000820120004F
:00000001FF
